:100000000C9466000C948E000C948E000C948E0060
:100010000C948E000C948E000C948E000C948E0028
:100020000C948E000C948E000C948E000C948E0018
:100030000C948E000C948E000C948E000C948E0008
:100040000C944C030C948E000C94BC030C949603FB
:100050000C948E000C948E000C948E000C948E00E8
:100060000C948E000C948E001112131415160A0BAA
:100070000C0D0E0F00010203040500000008000231
:100080000100000304070000000000000000000061
:100090000000250028002B0000000000240027009D
:1000A0002A000404040404040404020202020202FA
:1000B000030303030303010204081020408001022C
:1000C00004081020010204081020EE0311241FBEB2
:1000D000CFEFD8E0DEBFCDBF11E0A0E0B1E0E2EBB2
:1000E000FDE002C005900D92A634B107D9F722E0D9
:1000F000A6E4B1E001C01D92A130B207E1F710E023
:10010000C6E6D0E004C02197FE010E94CC06C536A9
:10011000D107C9F70E9428040C94D7060C9400005C
:1001200090E0FC01EA54FF4F2491FC01EE55FF4F93
:100130008491882399F090E0880F991FFC01E8567C
:10014000FF4FA591B491FC01E257FF4F8591949127
:100150008FB7F894EC91E22BEC938FBF089590E069
:10016000FC01E658FF4F2491FC01EA54FF4F349103
:10017000FC01EE55FF4FE491EE2309F43CC022232D
:1001800039F1233091F038F42130A9F0223001F513
:1001900084B58F7D12C0273091F02830A1F0243033
:1001A000B9F4809180008F7D03C0809180008F77AB
:1001B000809380000DC084B58F7784BD09C0809185
:1001C000B0008F7703C08091B0008F7D8093B00026
:1001D000F0E0EE0FFF1FE257FF4FA591B4919FB7DC
:1001E000F894611104C08C913095382302C0EC91D1
:1001F0003E2B3C939FBF08959CB59F7D9CBD9CB5B5
:10020000937F9CBD9CB59C7F9CBD9DB591609DBD21
:10021000682F8091F0010E94AF008FE090E001977D
:10022000F1F708953FB7F89480914E0190914F01F6
:10023000A0915001B091510126B5A89B05C02F3F58
:1002400019F00196A11DB11D3FBFBA2FA92F982FFC
:100250008827820F911DA11DB11DBC01CD0142E077
:10026000660F771F881F991F4A95D1F708958F92BF
:100270009F92AF92BF92CF92DF92EF92FF920E9435
:1002800012014B015C0185E0C82ED12CE12CF12C30
:100290000E941201DC01CB0188199909AA09BB0946
:1002A000883E9340A105B10598F321E0C21AD10818
:1002B000E108F10888EE880E83E0981EA11CB11CAD
:1002C000C114D104E104F10419F7FF90EF90DF901D
:1002D000CF90BF90AF909F908F900895CF92DF9274
:1002E000EF92FF920F931F93CF93DF936C017A01EC
:1002F0008B01C0E0D0E0CE15DF0581F0D8016D9113
:100300008D01D601ED91FC910190F081E02DC601A7
:100310000995892B11F02196EECF7E01C701DF915F
:10032000CF911F910F91FF90EF90DF90CF900895A4
:10033000089580E090E00895FC01538D448D252FB1
:1003400030E0842F90E0821B930B541710F0CF966F
:10035000089501970895FC01918D828D981761F0A1
:10036000828DDF01A80FB11D5D968C91928D9F5FEC
:100370009F73928F90E008958FEF9FEF0895FC0197
:10038000918D828D981731F0828DE80FF11D858D4A
:1003900090E008958FEF9FEF0895FC01918D228DDD
:1003A000892F90E0805C9F4F821B91098F73992762
:1003B000089582E591E00E94CD0121E0892B09F4A6
:1003C00020E0822F0895FC01848DDF01A80FB11D6C
:1003D000A35ABF4F2C91848D90E001968F7399277B
:1003E000848FA689B7892C93A089B1898C91837059
:1003F00080648C93938D848D981306C00288F38952
:10040000E02D80818F7D80830895EF92FF920F937E
:100410001F93CF93DF93EC0181E0888F9B8D8C8DB0
:10042000981305C0E889F989808185FD26C0F62EDC
:100430000B8D10E00F5F1F4F0F731127E02E8C8D77
:10044000E8120CC00FB607FCFACFE889F989808161
:1004500085FFF5CFCE010E94E301F1CF8B8DFE0128
:10046000E80FF11DE35AFF4FF0829FB7F8940B8F0E
:10047000EA89FB89808180620AC09FB7F894EE897F
:10048000FF896083E889F989808183708064808333
:100490009FBF81E090E0DF91CF911F910F91FF907E
:1004A000EF900895CF93DF93EC01888D8823C9F0F6
:1004B000EA89FB89808185FD05C0A889B9898C916D
:1004C00086FD0FC00FB607FCF5CF808185FFF2CF08
:1004D000A889B9898C9185FFEDCFCE010E94E301F7
:1004E000E7CFDF91CF91089580E090E0892B29F04C
:1004F0000E94D90181110C94000008958EBD000066
:100500000DB407FEFDCF8EB50895CF9380E00E9415
:10051000FC0081EE0E947E02C82F81E00E94FC0058
:100520008C2FCF910895CF93C82F80E00E94FC00BC
:100530008C2F8F710E947E028FEF0E947E02C82F47
:1005400081E00E94FC008C2FCF910895CF93DF9320
:10055000C82FD62F80E00E94FC008C2F8F71806204
:100560000E947E02C82F8D2F0E947E0281E00E9491
:10057000FC008C2FDF91CF91089580E00E949302C0
:1005800081FD0AC080E00E949302682F626080E0D3
:100590000E94A6020C94370108950F931F93CF93E6
:1005A0008C0186E00E949302C82FC77D023011059E
:1005B00031F4C0628BE990E0A0E0B0E00DC0013002
:1005C000110529F085E590E0A0E0B0E005C0C86025
:1005D00081E490E0A0E0B0E08093FC019093FD0105
:1005E000A093FE01B093FF016C2F86E00E94A6024B
:1005F00086E00E94930291E0C81390E0892FCF918A
:100600001F910F910895EF92FF920F931F93CF9335
:10061000DF93182F7B01C42F80E00E94FC00812F04
:100620008F7180620E947E02D82F8701CC2339F01F
:10063000F80181918F010E947E02C150F7CF81E0C5
:100640000E94FC008D2FDF91CF911F910F91FF90A1
:10065000EF900895009769F0FC0101900020E9F700
:100660003197AF01481B590BBC0182E591E00C9416
:100670006E0180E090E00895CF93DF930E942A03FB
:10068000EC0184E191E00E942A038C0F9D1FDF9111
:10069000CF9108950E94D2061F920F920FB60F922B
:1006A00011242F933F938F939F93AF93BF93809188
:1006B0004A0190914B01A0914C01B0914D013091B4
:1006C000490123E0230F2D3720F40196A11DB11D10
:1006D00005C026E8230F0296A11DB11D20934901F4
:1006E00080934A0190934B01A0934C01B0934D012C
:1006F00080914E0190914F01A0915001B091510114
:100700000196A11DB11D80934E0190934F01A093BE
:100710005001B0935101BF91AF919F918F913F9143
:100720002F910F900FBE0F901F9018951F920F9250
:100730000FB60F9211242F933F934F935F936F93B4
:100740007F938F939F93AF93BF93EF93FF9382E534
:1007500091E00E94E301FF91EF91BF91AF919F91D2
:100760008F917F916F915F914F913F912F910F905A
:100770000FBE0F901F9018951F920F920FB60F92F9
:1007800011242F938F939F93EF93FF93E091620136
:10079000F09163018081E0916801F091690182FD2F
:1007A00012C0908180916B018F5F8F7320916C01DB
:1007B000821751F0E0916B01F0E0EE5AFE4F958FF9
:1007C00080936B0101C08081FF91EF919F918F9188
:1007D0002F910F900FBE0F901F901895E2E5F1E05A
:1007E0001382128288EE93E0A0E0B0E084839583C8
:1007F000A683B78386E091E09183808385EC90E0C7
:100800009587848784EC90E09787868780EC90E0DA
:10081000918B808B81EC90E0938B828B82EC90E0CB
:10082000958B848B86EC90E0978B868B118E128E45
:10083000138E148EEFEEF1E089E080838AE08183ED
:10084000148280E28583168285E08487178208956A
:10085000CF93DF93CDB7DEB7A9970FB6F894DEBF7D
:100860000FBECDBF789484B5826084BD84B58160AD
:1008700084BD85B5826085BD85B5816085BD80916B
:100880006E00816080936E001092810080918100E3
:1008900082608093810080918100816080938100DB
:1008A000809180008160809380008091B10084609D
:1008B0008093B1008091B00081608093B0008091FE
:1008C0007A00846080937A0080917A0082608093BD
:1008D0007A0080917A00816080937A0080917A001A
:1008E000806880937A001092C100E0916201F091DB
:1008F000630182E08083E0915E01F0915F011082EC
:10090000E0916001F09161018FEC808310926A01A7
:10091000E0916601F091670186E08083E0916401D7
:10092000F0916501808180618083E0916401F091A4
:100930006501808188608083E0916401F0916501A8
:10094000808180688083E0916401F09165018081FD
:100950008F7D80838FE780934701109248018091BB
:10096000EF019091F00189130E9490008091F001B5
:100970009091EF0198130E9490001FB7F894809116
:100980004601811124C0ECEAF0E08491E0ECF0E053
:100990009491E82FF0E0EE0FFF1FE856FF4FA5916E
:1009A000B491EC91E92321F461E08AE00E94AF0068
:1009B0008AE00E9490008CB580618CBD8CB580640B
:1009C0008CBD8DE00E9490008BE00E949000809191
:1009D00046018F5F809346011FBF8091EF01909188
:1009E000F001891719F060E00E94AF0081E00E94D9
:1009F000FC000E9437016CE080E00E94A6026FE5D7
:100A000084E00E94A60282E090E00E94CD0288234A
:100A100019F081E08093F30180E090E00E94CD0224
:100A200080E00E94FC0080E50E947E0283E70E9435
:100A30007E0281E00E94FC0060E08DE10E94A6023F
:100A400060E08CE10E94A60260E787E00E94A602B7
:100A50006CE485E00E94A60280E00E94FC0082EE29
:100A60000E947E0281E00E94FC000E9485020E949A
:100A7000BD0280E00E949302682F6E7F80E00E949A
:100A8000A60260E081E00E94A60282E090E00E945F
:100A9000CD0281EE8AA380EF8BA38CA388EE8DA379
:100AA0008EA31FA218A619A6EFE6F0E0849140914C
:100AB000FB01BE016E5D7F4F0E940303E9E6F0E09B
:100AC00084916091F4010E94A60282E00E94930248
:100AD000E5E7F0E0E49161E070E001C0660FEA95BF
:100AE000EAF7682B82E00E94A6020E94BD0280E025
:100AF0000E949302682F616080E00E94A60260E776
:100B000087E00E94A6028091EF019091F001891781
:100B100019F061E00E94AF008091F601882341F056
:100B20004091FB0166EF71E08AE00E94030312C06E
:100B300082E00E949302E4E7F0E0E49121E030E0FB
:100B400001C0220FEA95EAF72095622F682382E020
:100B50000E94A6028DE10E94930281FD0E948502FF
:100B600083E00E94900083E00E949000EDE7F0E0B7
:100B7000E491E33021F158F4E130D9F0E23009F0AA
:100B800041C084B5806284BD8DE488BD35C0E73046
:100B900011F1E83049F1E430A9F5809180008062DC
:100BA000809380008DE490E090938B0080938A0086
:100BB00023C084B5806884BD8DE487BD1DC080914D
:100BC00080008068809380008DE490E0909389009D
:100BD0008093880011C08091B00080688093B0003D
:100BE0008DE48093B30008C08091B0008062809350
:100BF000B0008DE48093B4009AE0892E912CA12C52
:100C0000B12C17C060E083E00E94AF00F5CF81E017
:100C10000E94FC0060E787E00E94A6028FB7F8946C
:100C200040914A0150914B0160914C0170914D01EE
:100C30008FBF87E10E94930280FF62C080914701CD
:100C400090E090930101809300018091480190E031
:100C50008530910519F487E191E007C00A9719F4EE
:100C600087E291E002C085E391E00E943C03C090DE
:100C70000001D09001010D2C000CEE08FF08F7FEDA
:100C800020C06DE282E591E00E9405022227332711
:100C9000A9012C193D094E095F0919A2CE018196BF
:100CA0007C01CA01B901A50194010E94AA06605DF8
:100CB000F70162937F01211531054105510589F73F
:100CC00015C0A701960119A2CE0181967C01CA0127
:100CD000B901A50194010E94AA06605DF701629323
:100CE0007F01211531054105510589F7C7010E9492
:100CF0002A0384E191E00E942A030E94740299CFA2
:100D00008091F401823020F112E09091F50191116F
:100D100003C0F82EF11A01C0F12C80E00E94FC0003
:100D200081E60E947E0287E4C82E81E0D82E115011
:100D300038F08FEF0E947E02F60181936F01F7CFAA
:100D4000FF2009F464CF8FEF0E947E02FA94F8CF5F
:100D5000182FDBCFA1E21A2EAA1BBB1BFD010DC071
:100D6000AA1FBB1FEE1FFF1FA217B307E407F5075B
:100D700020F0A21BB30BE40BF50B661F771F881F37
:100D8000991F1A9469F760957095809590959B01CD
:100D9000AC01BD01CF010895EE0FFF1F0590F49146
:100DA000E02D099481E090E0F8940C94D706F89433
:020DB000FFCF73
:100DB2007F000000000005026E019C015202CD017D
:100DC200AB01BF010D0A006A617A646120646F2081
:100DD20070727A6F6475006A617A646120646F2050
:100DE2007479B3750073696C6E696B207779B3B9E6
:060DF200637A6F6E7900C8
:107800000C94343C0C94513C0C94513C0C94513CE1
:107810000C94513C0C94513C0C94513C0C94513CB4
:107820000C94513C0C94513C0C94513C0C94513CA4
:107830000C94513C0C94513C0C94513C0C94513C94
:107840000C94513C0C94513C0C94513C0C94513C84
:107850000C94513C0C94513C0C94513C0C94513C74
:107860000C94513C0C94513C11241FBECFEFD8E036
:10787000DEBFCDBF11E0A0E0B1E0ECE9FFE702C060
:1078800005900D92A230B107D9F712E0A2E0B1E065
:1078900001C01D92AD30B107E1F70E942D3D0C945F
:1078A000CC3F0C94003C982F959595959595959582
:1078B000905D8F708A307CF0282F295A8091C0000B
:1078C00085FFFCCF9093C6008091C00085FFFCCF60
:1078D0002093C6000895282F205DF0CF982F809127
:1078E000C00085FFFCCF9093C6000895EF92FF92F1
:1078F0000F931F93EE24FF2487018091C00087FD22
:1079000017C00894E11CF11C011D111D81E4E8164B
:1079100082E4F8068FE0080780E0180770F3E09132
:107920000401F091050109958091C00087FFE9CF1E
:107930008091C6001F910F91FF90EF9008950E94D3
:10794000763C982F8091C00085FFFCCF9093C600B5
:1079500091362CF490330CF09053892F089597555D
:10796000892F08951F930E949F3C182F0E949F3CCF
:107970001295107F810F1F9108951F93182F882350
:1079800021F00E94763C1150E1F71F9108951F935A
:10799000182F0E94763C803249F0809103018F5F5E
:1079A000809303018530C1F01F9108958091C0003C
:1079B00085FFFCCF84E18093C6008091C00085FFE5
:1079C000FCCF1093C6008091C00085FFFCCF80E102
:1079D0008093C6001F910895E0910401F091050184
:1079E00009951F9108950E94763C803241F0809164
:1079F00003018F5F80930301853081F008958091AA
:107A0000C00085FFFCCF84E18093C6008091C00058
:107A100085FFFCCF80E18093C6000895E0910401CA
:107A2000F09105010995089540E951E08823A1F0FE
:107A30002D9A28EE33E0FA013197F1F721503040CA
:107A4000D1F72D9828EE33E0FA013197F1F7215064
:107A50003040D1F7815061F708953F924F925F9285
:107A60006F927F928F929F92AF92BF92CF92DF924E
:107A7000EF92FF920F931F93CF93DF93000080E16B
:107A80008093C4001092C50088E18093C10086E015
:107A90008093C2005098589A259A81E00E94143D24
:107AA00024E1F22E9EE1E92E85E9D82E0FE0C02ECA
:107AB00010E1B12EAA24A394B1E49B2EA6E58A2E50
:107AC000F2E57F2EE0E26E2E79E4572E63E5462E36
:107AD00050E5352E0E94763C8033B1F18133B9F107
:107AE000803409F46FC0813409F476C0823409F41B
:107AF00085C0853409F488C0803531F1823521F1A3
:107B0000813511F1853509F485C0863509F48DC0BC
:107B1000843609F496C0843709F403C1853709F423
:107B200072C1863709F466C0809103018F5F80932C
:107B30000301853079F6E0910401F0910501099582
:107B40000E94763C803351F60E94F33CC3CF0E94E2
:107B5000763C803249F78091C00085FFFCCFF092DF
:107B6000C6008091C00085FFFCCF9092C600809136
:107B7000C00085FFFCCF8092C6008091C00085FFC9
:107B8000FCCF7092C6008091C00085FFFCCF609250
:107B9000C6008091C00085FFFCCF5092C600809146
:107BA000C00085FFFCCF4092C6008091C00085FFD9
:107BB000FCCF3092C6008091C00085FFFCCFB09210
:107BC000C60088CF0E94763C863808F4BDCF0E945C
:107BD000763C0E94F33C7ECF0E94763C803809F4CC
:107BE0009CC0813809F40BC1823809F43CC1883942
:107BF00009F48FC080E00E94C73C6CCF84E10E94F2
:107C0000BD3C0E94F33C66CF85E00E94BD3C0E94D3
:107C1000F33C60CF0E94763C809306010E94763C44
:107C2000809307010E94F33C55CF0E94763C80333D
:107C300009F41DC183E00E94BD3C80E00E94C73C66
:107C400049CF0E94763C809309020E94763C809343
:107C5000080280910C028E7F80930C020E94763C79
:107C6000853409F415C18091080290910902892B8D
:107C700089F000E010E00E94763CF801E85FFE4FDA
:107C800080830F5F1F4F80910802909109020817AF
:107C9000190788F30E94763C803209F045CF809125
:107CA0000C0280FF01C16091060170910701660F0F
:107CB000771F7093070160930601A0910802B091AD
:107CC00009021097C9F0E8E0F1E09B01AD014E0F09
:107CD0005F1FF999FECF32BD21BD819180BDFA9A17
:107CE000F99A2F5F3F4FE417F50799F76A0F7B1F4B
:107CF00070930701609306018091C00085FFFCCF5F
:107D0000F092C6008091C00085FFFCCFB092C60003
:107D1000E1CE83E00E94C73CDDCE82E00E94C73CFA
:107D2000D9CE0E94763C809309020E94763C8093D3
:107D300008028091060190910701880F991F909386
:107D40000701809306010E94763C853409F4A6C0A1
:107D500080910C028E7F80930C020E94763C8032D0
:107D600009F0B8CE8091C00085FFFCCFF092C6002C
:107D7000609108027091090261157105B9F140E046
:107D800050E080910C02A82FA170B82FB27011C0E2
:107D9000BB2309F45CC0E0910601F0910701319624
:107DA000F0930701E09306014F5F5F4F46175707B7
:107DB000E8F4AA2369F3F999FECF209106013091E6
:107DC000070132BD21BDF89A90B58091C00085FFB2
:107DD000FCCF9093C6002F5F3F4F30930701209355
:107DE00006014F5F5F4F4617570718F38091C00099
:107DF00085FDE5CE8091C00085FFF8CFE0CE81E023
:107E00000E94C73C67CE0E94763C803209F08CCE3F
:107E10008091C00085FFFCCFF092C6008091C00029
:107E200085FFFCCFE092C6008091C00085FFFCCFAB
:107E3000D092C6008091C00085FFFCCFC092C600E2
:107E40008091C00085FFFCCFB092C60043CEE09188
:107E50000601F091070194918091C00085FFFCCF4D
:107E60009093C6009CCF80E10E94C73C33CE0E9415
:107E7000763C0E94763C182F0E94763C112309F430
:107E800083C0113009F484C08FE00E94C73C22CE29
:107E900080910C02816080930C02E5CE80910C02EF
:107EA000816080930C0259CF809107018823880F4D
:107EB000880B8A2180930B02809106019091070123
:107EC000880F991F90930701809306018091080203
:107ED00080FF09C080910802909109020196909359
:107EE000090280930802F894F999FECF1127E091D6
:107EF0000601F0910701C8E0D1E08091080290915D
:107F00000902103091F40091570001700130D9F34B
:107F100003E000935700E89500915700017001308D
:107F2000D9F301E100935700E89509901990009169
:107F3000570001700130D9F301E000935700E89534
:107F40001395103498F011270091570001700130FB
:107F5000D9F305E000935700E895009157000170B0
:107F60000130D9F301E100935700E895329602976A
:107F700009F0C7CF103011F00296E5CF112480919F
:107F8000C00085FFB9CEBCCE8EE10E94C73CA2CD19
:0C7F900085E90E94C73C9ECDF894FFCF0D
:027F9C00800063
:040000030000780081
:00000001FF
